:020000040000FA
:10000000E0020020291000002D1000004302000033
:1000100000000000000000000000000000000000E0
:10002000000000000000000000000000311000008F
:100030000000000000000000331000009D0B0000D5
:1000400037100000371000003710000000000000DB
:1000500000000000000000000000000000000000A0
:100060000000000000000000000000000000000090
:1000700037100000371000000000000037100000AB
:1000800037100000371000000000000000000000E2
:1000900000000000D10B00007D0E000000000000F9
:1000A0003710000037100000371000003710000034
:1000B000590A00007B090000870800007D07000046
:1000C00000F002F800F03EF80CA030C80838241800
:1000D0002D18A246671EAB4654465D46AC4201D180
:1000E00000F030F87E460F3E0FCCB6460126334274
:1000F00000D0FB1AA246AB46334318475C1B0000F6
:100100007C1B0000103A02D378C878C1FAD8520795
:1001100001D330C830C101D504680C6070470000BD
:100120000023002400250026103A01D378C1FBD813
:10013000520700D330C100D50B6070471FB51FBDFB
:1001400010B510BD01F007FD1146FFF7F7FF00F0F5
:100150002CF801F01FFD03B4FFF7F2FF03BC01F020
:1001600025FD0000F0B585B06320424908600120FC
:10017000414908603F48006801F0EAFC019001F045
:1001800091FC044600223D4B01F020F900223C4B3B
:100190000391029001F062FB064601F03BFB3949F6
:1001A000086005B0F0BD704770471CB500BF03265E
:1001B000032703200190009000BF00F0B5FF00F07E
:1001C00049FFFFF7F1FF00F0D5FC00F0D6F8FFF78C
:1001D000C9FF00F0E8FD33E00521022000F05AF8E5
:1001E0000025254800681721484304461234002E94
:1001F00000D0A419002F02D020467843044601986D
:10020000002804D02046019901F02FF804460098F8
:10021000002801D00098241A1B4800690121090414
:10022000084000280CD0FF2017498861002D07D115
:100230000521022000F0ACF800E06D1CA542FCD3C3
:10024000CAE700BF00BF00BF00BF00BFBFF34F8FB2
:1002500000BF00BF00BF0D480D49C86000BF00BF10
:1002600000BFBFF34F8F00BF00BF00BF00BF00BF84
:10027000FDE70000000000204C00002000408F40FF
:10028000000069400400002000E000E00400FA05DE
:1002900000ED00E0002806D001280CD0022812D082
:1002A000032820D117E0FB4A926A01238B401A43AE
:1002B000F84B9A6218E0F84A926A01238B401A437D
:1002C000F54B9A6210E0F54A926A01238B401A437B
:1002D000F24B9A6208E0F24A926A01238B401A4379
:1002E000EF4B9A6200E000BF00BF704730B5034695
:1002F0000020002B06D0012B12D0022B1ED0032B86
:1003000038D129E0E34C606801248C400546A543C0
:10031000284614468C402043DE4C606060682AE02A
:10032000DD4C606801248C400546A54328461446F0
:100330008C402043D84C606060681CE0D74C6068FB
:1003400001248C400546A543284614468C40204392
:10035000D24C606060680EE0D14C606801248C4033
:100360000546A543284614468C402043CC4C60608B
:10037000606800E000BF00BF30BD00B5012205216C
:100380000220FFF7B3FF05210220FFF783FF00BD26
:10039000002806D001280CD0022812D0032820D132
:1003A00017E0BC4A526A01238B401A43B94B5A6288
:1003B00018E0B94A526A01238B401A43B64B5A627D
:1003C00010E0B64A526A01238B401A43B34B5A627B
:1003D00008E0B34A526A01238B401A43B04B5A6279
:1003E00000E000BF00BF704770B504460020A94D73
:1003F000E8680125A5400646AE4330460D46A540B7
:100400002843A44DE86028690125A5400646AE436F
:1004100030461546A54028439E4D28616869012550
:10042000A5400646AE4330461D46A5402843994D9B
:10043000686170BD70B504460020974DE8680125DD
:10044000A5400646AE4330460D46A5402843924D92
:10045000E86028690125A5400646AE4330461546AA
:10046000A54028438C4D286168690125A5400646B2
:10047000AE4330461D46A5402843874D686170BD98
:1004800070B504460020854DE8680125A540064664
:10049000AE4330460D46A5402843804DE8602869AC
:1004A0000125A5400646AE4330461546A5402843E3
:1004B0007A4D286168690125A5400646AE4330465D
:1004C0001D46A5402843754D686170BD70B5044652
:1004D0000020734DE8680125A5400646AE4330462E
:1004E0000D46A54028436E4DE86028690125A540CA
:1004F0000646AE4330461546A5402843684D286160
:1005000068690125A5400646AE4330461D46A54014
:100510002843634D686170BD70B506460C461546AC
:10052000002E06D0012E25D0022E3AD0032E70D1F7
:100530004FE00A2C01D00B2C04D15A48006A012844
:1005400000D070BD584853490862084680690121AF
:10055000A14088434F498861084680692946A140E7
:1005600008434C4988611F2000F0F6FA1F2000F074
:10057000EAFA4FE0484880690121A1408843464992
:100580008861084680692946A1400843424988613C
:10059000454808621E2000F0DFFA1E2000F0D3FA62
:1005A00038E041483D490862084680690121A14080
:1005B00088433A498861084680692946A140084332
:1005C000364988611D2000F0C7FA1D2000F0BBFAF3
:1005D00020E0062C04D13348C069012800D0B0E7E0
:1005E00031482F490862084680690121A1408843AB
:1005F0002B498861084680692946A140084328495B
:1006000088611C2000F0A8FA1C2000F09CFA01E090
:10061000FFE700BF00BF00BF93E7002806D0012816
:1006200009D002280CD0032814D10EE001228A4000
:10063000184B1A620FE001228A40174B1A620AE037
:1006400001228A40154B1A6205E001228A40144BB0
:100650001A6200E000BF00BF704730B503460020BB
:100660004800002B06D0012B20D0022B2DD0032BCD
:1006700048D139E0074CA46803258540AC43054DBB
:10068000AC602C46A468154685402C43014DAC60F7
:1006900039E0000000400440006004400080044055
:1006A00000A0044000000640FFFF0000FB4CA468CF
:1006B00003258540AC43F94DAC602C46A468154633
:1006C00085402C43F54DAC601DE0F54CA468032536
:1006D0008540AC43F24DAC602C46A468154685407D
:1006E0002C43EF4DAC600EE0EE4CA5680324844033
:1006F000A543EC4CA560A468154685402C43E94D04
:10070000AC6000E000BF00BF30BD10B500280ED1C6
:10071000E54BDB6A01248C40A343E34CE3622346B0
:10072000DB6A14468C402343DF4CE36200E000BFE9
:1007300000BF10BD02460020002A06D0012A09D0C1
:10074000022A0CD0032A14D10EE0D74BDB69CB4030
:1007500018460FE0D14BDB69CB4018460AE0D04B7E
:10076000DB69CB40184605E0CE4BDB69CB40184631
:1007700000E000BF00BFC007C00F704700B50021F8
:100780000846FFF7D7FF012804D100210846FFF7EC
:1007900044FF77E001210020FFF7CCFF012804D1BE
:1007A00001210020FFF739FF6CE002210020FFF754
:1007B000C1FF012804D102210020FFF72EFF61E0D4
:1007C00003210020FFF7B6FF012804D103210020F8
:1007D000FFF723FF56E004210020FFF7ABFF0128BD
:1007E00004D104210020FFF718FF4BE00521002071
:1007F000FFF7A0FF012804D105210020FFF70DFF1E
:1008000040E006210020FFF795FF012804D10621D2
:100810000020FFF702FF35E007210020FFF78AFFE5
:10082000012804D107210020FFF7F7FE2AE0082164
:100830000020FFF77FFF012804D108210020FFF7E7
:10084000ECFE1FE009210020FFF774FF012804D10E
:1008500009210020FFF7E1FE14E00A210020FFF744
:1008600069FF012804D10A210020FFF7D6FE09E024
:100870000B210020FFF75EFF012803D10B21002090
:10088000FFF7CBFE00BD00B500210120FFF752FFAE
:10089000012803D10021FFF7C0FE6DE001210846C9
:1008A000FFF748FF012804D101210846FFF7B5FEF4
:1008B00062E002210120FFF73DFF012803D1022160
:1008C000FFF7ABFE58E003210120FFF733FF0128BB
:1008D00003D10321FFF7A1FE4EE004210120FFF721
:1008E00029FF012803D10421FFF797FE44E00521E9
:1008F0000120FFF71FFF012803D10521FFF78DFE1F
:100900003AE006210120FFF715FF012803D1062157
:10091000FFF783FE30E007210120FFF70BFF0128DE
:1009200003D10721FFF779FE26E008210120FFF718
:1009300001FF012803D10821FFF76FFE1CE0092108
:100940000120FFF7F7FE012803D10921FFF765FE1B
:1009500012E00A210120FFF7EDFE012803D10A2150
:10096000FFF75BFE08E00B210120FFF7E3FE012803
:1009700002D10B21FFF751FE00BD00B5002102207E
:10098000FFF7D8FE012804D100210220FFF745FE21
:1009900061E001210220FFF7CDFE012804D10121F1
:1009A0000220FFF73AFE56E002210846FFF7C2FE9A
:1009B000012804D102210846FFF72FFE4BE0032156
:1009C0000220FFF7B7FE012804D103210220FFF720
:1009D00024FE40E004210220FFF7ACFE012804D1F0
:1009E00004210220FFF719FE35E005210220FFF760
:1009F000A1FE012804D105210220FFF70EFE2AE006
:100A000006210220FFF796FE012804D106210220CC
:100A1000FFF703FE1FE007210220FFF78BFE0128EE
:100A200004D107210220FFF7F8FD14E0082102207D
:100A3000FFF780FE012804D108210220FFF7EDFD19
:100A400009E009210220FFF775FE012803D10921E1
:100A50000220FFF7E2FD00BD00B500210320FFF7F3
:100A600069FE012804D100210320FFF7D6FD69E0CB
:100A700001210320FFF75EFE012804D1012103209C
:100A8000FFF7CBFD5EE002210320FFF753FE0128B4
:100A90000CD102210320FFF7C0FD53E000600440A9
:100AA0000080044000A004400040044003210846A8
:100AB000FFF740FE012804D103210846FFF7ADFDF2
:100AC00040E004210320FFF735FE012804D1042172
:100AD0000320FFF7A2FD35E005210320FFF72AFEE2
:100AE000012804D105210320FFF797FD2AE0062104
:100AF0000320FFF71FFE012804D106210320FFF782
:100B00008CFD1FE007210320FFF714FE012804D10C
:100B100007210320FFF781FD14E008210320FFF7E0
:100B200009FE012804D108210320FFF776FD09E022
:100B300009210320FFF7FEFD012803D1092103202D
:100B4000FFF76BFD00BD002805DBC206D20E0121B8
:100B50009140064A11607047002805DBC206D20E9C
:100B600001219140024A11607047000000E100E05D
:100B700080E200E010B500F06DFA124909680A221F
:100B8000514308467D21C90000F06FFB401E0E490D
:100B90004861FF2088610520086110BD70B5FF2005
:100BA000094988610948026840680021541C48418D
:100BB000054664220B462046294600F0D5FA034834
:100BC0000CC070BD7C00002000E000E02800002088
:100BD00018B59F4A9168C3E00A07520F012A70D0E6
:100BE000022A20D0032A02D0072A6BD1B1E0984A0A
:100BF000506980220240802A14D104220240042A33
:100C000002D1934A1268009208220240082A02D1B7
:100C10008F4A1268009210220240102A02D18C4A98
:100C20001268009299E08A4A5069C207D20F002ADE
:100C30000AD0874A1268874B874C24681A55864A1F
:100C40001268521C844B1A60834A1268032A7CD1B2
:100C50000022814B1A600122804B1A701A461278CA
:100C6000012A72D17B4A1278052A56D008DC012A63
:100C70004FD0022A4ED0032A4DD0042A5DD14BE03A
:100C8000062A4BD0F52A04D0F62A1CD0F72A54D1D4
:100C90003EE0704A52786F4B9B789A4210D16D4A71
:100CA0009278652A0CDC6B4A9278521E6C4B1A6063
:100CB00001226C4B1A6000226B4B1A606B4B1A605E
:100CC0003BE043E048E0634A5278624B9B789A42AB
:100CD0001DD1604A9278012A02D0022A16D109E079
:100CE000614A1268642A04D25F4A1268521C5E4B41
:100CF0001A600BE05D4A12687D23DB009A4204D241
:100D00005A4A1268521C594B1A6000BF00BF14E0C7
:100D100013E000BF00BF00BF00BF00BF4D4A5278C4
:100D20004C4B9B789A4207D14A4A9278521E4C4BC0
:100D30001A6000224B4B1A6000BF00BF0022474BD5
:100D40001A70444B1A705A709A7006E0404A506903
:100D500003E03F4A506900E000BF00BF3C4A916891
:100D6000CA07D20F002A00D136E7FF2201320A401B
:100D7000FF2301339A4205D1354A126A1A43344B94
:100D80001A620BE0012252020A4001235B029A42DE
:100D900004D12F4A126A1A432D4B1A6218BD3448E7
:100DA0002B494860704700B53248006801210904AA
:100DB00008433049086083202549C8607020886254
:100DC000002048604E2008600846C06880218843A3
:100DD0001F49C86007208860FFF7E1FFC1201C4958
:100DE00008631520002805DBC206D20E01219140C0
:100DF000214A116000BF00BD1549086000BF1449B9
:100E00004969402211400029F9D07047184810382C
:100E10000F49086270471748006801210904084318
:100E2000144908600A48006B40084000401C08490B
:100E3000086370470648006B400840000449086397
:100E40000C4800680121090488430A49086070477A
:100E500000600140400000203C00002038000020DD
:100E60004C000020500000205400002058000020BA
:100E70001703000000E0054000E100E018B5634AF8
:100E800091684CE00A07520F012A3ED0022A20D076
:100E9000032A02D0072A3ED13AE05C4A50698022F8
:100EA0000240802A14D104220240042A02D1574A67
:100EB0001268009208220240082A02D1534A12689E
:100EC000009210220240102A02D1504A1268009269
:100ED00022E04E4A5069C207D20F002A0AD04B4A7C
:100EE00012684B4B4B4C24681A554A4A1268521CE4
:100EF000484B1A60474A1268062A05D10022454B22
:100F00001A600122444B1A7006E0404A506903E01F
:100F10003E4A506900E000BF00BF3C4A9168CA07E2
:100F2000D20F002AAED0FF2201320A40FF23013344
:100F30009A4205D1354A126A1A43344B1A620BE0C1
:100F4000012252020A4001235B029A4204D12F4A35
:100F5000126A1A432D4B1A6218BD30482B4948605B
:100F6000704700B52E4800680121490408432C4908
:100F700008608B202549C860702088620020486086
:100F80004E2008600846C068802188431F49C86019
:100F900007208860FFF7E1FFC1201C490863162085
:100FA000002805DBC206D20E012191401D4A1160C6
:100FB00000BF00BD1549086000BF144949694022BF
:100FC00011400029F9D07047144810380F490862C1
:100FD000704713480068012149040843104908601C
:100FE0000A48006B40084000401C084908637047ED
:100FF0000648006B40084000044908630848006840
:101000000121490488430649086070470060054093
:10101000700000206C000020680000201703000012
:1010200000E0054000E100E006480047FEE7FEE77B
:10103000FEE7FEE7FEE7FEE703480449024A044BE9
:1010400070470000C1000000E0000020E002002026
:10105000E000002010B53B48C0684006400F030088
:1010600000F0ABFD0504080D11161A00364837498B
:10107000086012E07D20C001344908600DE034486A
:101080003249086009E00120C0033049086004E0EB
:1010900030482E49086000E000BF00BF29480069C1
:1010A000030000F08AFD080507090B0D0F11131549
:1010B00001240EE002240CE004240AE0082408E0E5
:1010C000102406E0202404E0402402E0802400E014
:1010D00000BF00BF21461D48006800F0C6F81B494C
:1010E0000860084600681C49884203D91B481C490F
:1010F000086018E0154800687D218901884204D8FD
:1011000016480B38164908600DE01048006815496C
:10111000884204D811480D381149086003E00F488F
:101120000A380F49086010BD00200649C86000BF9A
:101130000448C068702108400028F9D101490861BD
:101140007047000000000640E02E00007C000020F8
:101150000024F400006CDC0200366E010D00FA5A27
:1011600000200640001BB700FEB5054610460C46A1
:10117000184373D0AE468C460020AD1A01469C4100
:1011800067D36646002701243D46B61A9D4102D327
:1011900013463A462124654676462F04360C3E43D4
:1011A0002D0CB61A9D4104D3150C1B042B431204BD
:1011B0001034654676462F06360A3E432D0AB61A87
:1011C0009D4104D3150E1B022B43120208346546C1
:1011D00076462F0736093E432D09B61A9D4104D3A2
:1011E000150F1B012B431201241D65467646AF07E0
:1011F000B6083E43AD08B61A9D4104D3950F9B0037
:101200002B439200A41C65467646EF0776083E43C2
:101210006D08B61A9D411AD392185B41641C16E002
:101220000018764665464941B71A9D4101910090E4
:1012300009D36046B11A98418E46844600980199B8
:101240000025401C6941DD0752082A435B08641EE3
:10125000E6D57246634603B0F0BDFFE700200146C5
:10126000C046C0462A462346F5E7002203098B42C2
:101270002CD3030A8B4211D300239C464EE0034635
:101280000B433CD4002243088B4231D303098B42E9
:101290001CD3030A8B4201D394463FE0C3098B421F
:1012A00001D3CB01C01A524183098B4201D38B0178
:1012B000C01A524143098B4201D34B01C01A52411B
:1012C00003098B4201D30B01C01A5241C3088B4260
:1012D00001D3CB00C01A524183088B4201D38B004B
:1012E000C01A524143088B4201D34B00C01A5241ED
:1012F000411A00D201465241104670475DE0CA0FC4
:1013000000D04942031000D34042534000229C4683
:1013100003098B422DD3030A8B4212D3FC2289018D
:1013200012BA030A8B420CD3890192118B4208D363
:10133000890192118B4204D389013AD0921100E0C5
:101340008909C3098B4201D3CB01C01A52418309D9
:101350008B4201D38B01C01A524143098B4201D306
:101360004B01C01A524103098B4201D30B01C01A31
:101370005241C3088B4201D3CB00C01A52418308AB
:101380008B4201D38B00C01A5241D9D243088B4201
:1013900001D34B00C01A5241411A00D201466346A4
:1013A00052415B10104601D34042002B00D5494208
:1013B000704763465B1000D3404201B50020C04631
:1013C000C04602BD7047704770470000F0B5F94D48
:1013D0000C091E092C402E402F468BB0A7437DD010
:1013E000B543FCD0002E7AD0002CFCD00D465D40D9
:1013F000ED0F2543AC1BFF25AD0464190894C5020D
:10140000440DC9022143500DDC0204430120C007F2
:1014100001430443D2020191200C110C00958C462B
:10142000010423468B430A9161460904E24D8A4335
:101430000991010A7D4449198039097805464D43CF
:1014400001266D18F605751B6943C90C640B891CD0
:101450004C436418B5012C1B250C2E04B4434C439B
:101460004D43210C691889090591009DE90701D0B8
:101470000121C90704912C4601996708CD072F4324
:101480004C08059DE10B4D432D0C294666467543DE
:1014900002950D4645432E46029D7D1BB4410095A5
:1014A0000D465D4301942C0C2F040D465543AE466A
:1014B0002D0C3D43029503947546049C2D04641B3A
:1014C000049406D2029C039D641C0026754103957A
:1014D000029401AC70CC009F7D1B01E03EE162E113
:1014E000B44109040095079101940599A40861434A
:1014F000090C0C464443650BE7040C4666467443EE
:10150000A646640B3C43039502947446049DE40490
:101510002C1B049406D2029C039D641C002675417A
:101520000395029401AC70CC009F7D1BB4410194E3
:101530000C465C430095650FE7000C465443A646F5
:10154000640F3C43039502947446049DE4002C1BF5
:10155000049406D2029C039D641C002675410395E9
:10156000029401AC70CC009F7D1BB441AE09AF0664
:10157000049DC900AD092F43049DA406AD06049542
:10158000079D344369180791059DE10B4D432D0CD0
:1015900029466646754302950D4645432E46029DF3
:1015A0007D1BB44100950D465D4301942C0C2F0426
:1015B0000D465543AE462D0C3D43029503947546AA
:1015C000049C2D04641B049406D2029C039D641C9D
:1015D000002675410395029401AC70CC009F7D1BE1
:1015E000B44101948C050694079C890A6118009502
:1015F0000791019C0599A4086143090C0D464543D8
:10160000680BEF040D46644665436C0B3C43049F36
:10161000ED047D1BAC4602D20025641C6841009E8F
:10162000019D371B85410846584301950C46460FDE
:10163000C5005443600F28436546E4002C1B02D2CA
:101640000025401C6E41019D3F1AB5412846BD0949
:10165000800628438446A009BF064E020699A406C8
:1016600076180743079D002068410A99079019439F
:101670000020099B00906046FF1913434041E20F90
:1016800064003A43A4460446D71A8C41A04203D9C9
:101690000120009020463A46C70F94184041624608
:1016A000D20F2243644664000494009CBE4664004A
:1016B000D71AA446044602978C417746002F01D1E1
:1016C000A04204D96046401C8446029A2046C40FBA
:1016D000A64694184041049A0546D20F2243644618
:1016E0006400D31A8D417146002901D1A84202D964
:1016F00028461A46641C10430122002800D01643D5
:1017000061020020079B891904465C410223002CDA
:1017100002DB491813466441089DCE0A2D145D1959
:101720004B056705E10A2C050D1908993E43C907C9
:101730006940002B08D0934006D30022761C51410B
:10174000002B01D1760876001C4A002D43DB1542A0
:1017500041D0AA433FD030460BB0F0BD06180D462D
:101760004D41174C7642AC411AD395181C465C414A
:10177000134A6D42A24113D3012252054C00D442B8
:101780000AD15C00D4420BD04B4002D592021143E7
:10179000E2E749004908DFE75940C90FC90718E0E7
:1017A00000200849D8E7054801420DD10342F7D08F
:1017B000F2E700000000FF079E0700000000F07F36
:1017C0000000E0FF0000F87F114859400143C012BB
:1017D00041400020C0E70123089A9B069A4205DC9D
:1017E000032252078918C90FC907B5E70522520716
:1017F0008918074A1143D2125140ADE770B515461A
:101800001C4602460B4628462146FFF7DFFD70BD09
:10181000FFFFFF7F0346CA02400D10B510430A15B3
:1018200004D00124E4072043002A05DB0A4CA21A55
:1018300004D4D040FF2A00DD002010BD4A00002B58
:1018400001D0012000E00020101801225205D042F2
:10185000F2D8C817C04310BD1E040000F0B58B4C71
:101860000F09254689B0BD437BD01D092646AE43EE
:10187000FAD00E465E402740F60F3E43254071D019
:1018800024012142FBD0FF24AD19A4042D1B039594
:1018900001252D05DB02DB0AC9022B43C90A2943B6
:1018A0001E010901040F130F050121431701880BC5
:1018B000820391432D098C46A90B1E438A0395434D
:1018C000B30B9A0396433F09BA0B9403A7430296BE
:1018D0002E467E430497B6464E19D7190C460196FC
:1018E000544305977E43371B7646BF1B3601B646E9
:1018F000BE0B361900967646BC043719009C01D3FE
:10190000641C00946400002F01D001263443029E21
:10191000049F754366467E430496760034196E0034
:1019200034190094029C019E1C196643751BAE4637
:10193000069465464519059C05956C4359437546C3
:101940000891691A0191049E01465143A41B049118
:10195000611A009C0791E10605D06109012211433B
:1019600002E072E06EE06109089D00272C0A2D0656
:101970006918049D7C412A0A2D066918019D62415F
:10198000AC0DAD026D185441079A910D9202551994
:101990006141029A644658435443069B059A5A4350
:1019A000121A131B9A0E9B015B187A41010B00055A
:1019B000C3185141220A200644195A419A4200D2C2
:1019C000491C01204002814203D315230226F6431D
:1019D00002E014230326F6432020C51AA940174627
:1019E000AF40DA400A4320460399D84009147318DF
:1019F00019055118039A3843D2075140AC4009D019
:101A00000122944006D30022401C5141002C01D1F8
:101A1000400840001E4A934212D3012203989206C6
:101A2000904207DB0520400709181A480143C012FD
:101A3000414004E0032040070818C10FC9070020F7
:101A400009B0F0BD0020F107FAE705180C464C413B
:101A500011486D42A04115D394181A465A410E48B8
:101A6000644290410ED301204A004005824209D3CE
:101A70005A00824206D35940C90F084AC9070020BC
:101A80001143DDE700200649DAE700000000FF0708
:101A9000FE070000FFFFFF7F0000E0FF0000F07F77
:101AA0000000F87F0121C9050123411842001B06EF
:101AB000D3185B0E0AD0C1100722D206891840073E
:101AC0005242D14201D5520089187047090208D507
:101AD0000146002A03D0C10FC907002070471046F5
:101AE0007047420202D000200249704707210905D1
:101AF0000143F4E70000F87F1F22030C02D10F22FC
:101B000000041CD0030E01D10002083A030F01D1DA
:101B10000001121F830F01D18000921E002801DBFB
:101B20004000521ED205511802125118192290403D
:101B300004D3491C002801D14908490008467047D0
:101B4000C10FC90700D04042012292071143D3E7D9
:101B500001218907D0E7754600F024F8AE4605005C
:101B600069465346C008C000854618B020B5FFF747
:101B700063FA60BC00274908B6460026C0C5C0C548
:101B8000C0C5C0C5C0C5C0C5C0C5C0C5403D490071
:101B90008D46704710B50446C046C0462046FEF745
:101BA000DAFA10BD00487047800000200149182073
:101BB000ABBEFEE726000200704730B47446641ED8
:101BC0002578641CAB4204D3635D5B00E31830BC32
:101BD00018471D46F8E780807F7E7D7C7B7A797888
:101BE000777676757473727171706F6E6E6D6C6CE2
:101BF0006B6A6A6968686766666564646363626184
:101C00006160605F5F5E5E5D5D5C5C5B5B5A5A5904
:101C10005958585757565655555554545353525270
:101C20005251515050504F4F4F4E4E4D4D4D4C4CC8
:101C30004C4B4B4B4A4A4A49494948484847474711
:101C4000474646464545454444444443434343424E
:101C50004242424141410000781C00000000002047
:101C60008000000004010000F81C0000800000203B
:101C700060020000200100000000000000000000E1
:101C80000000000000000000000000000000000054
:101C90000000000000000000000000000000000044
:101CA0000000000000000000000000000000000034
:101CB0000000000000000000000000000000000024
:101CC0000000000001000000000000000000000013
:101CD0000000000000000000000000000000000004
:101CE00000000000000000000000000000000000F4
:081CF0000000000000000000EC
:04000005000000C136
:00000001FF
